:020000040800F2
:10000000D8340020811C0008E11C0008E11C000815
:10001000E11C0008E11C0008E11C000800000000D1
:10002000000000000000000000000000E11C0008CB
:10003000E11C000800000000E11C0008E11C0008B1
:10004000E11C0008E11C0008E11C0008E11C00089C
:10005000E11C0008E11C0008E11C0008E11C00088C
:10006000E11C0008E11C0008E11C0008E11C00087C
:10007000E11C0008E11C0008E11C0008E11C00086C
:1000800015290008E11C0008E11C0008E11C00081B
:10009000E11C0008E11C0008E11C0008E11C00084C
:1000A000E11C00083D290008E11C0008E11C0008D3
:1000B000E11C0008E11C0008E11C0008E11C00082C
:1000C000E11C0008E11C0008E11C0008E11C00081C
:1000D000E11C0008E11C0008E11C0008E11C00080C
:1000E000E11C0008E11C0008E11C00080000000001
:1000F0000000000000000000000000000000000000
:1001000000000000000000005FF808F180B584B036
:1001100000AF584BFB60FB6803F5405304330222E9
:100120001A60FB6803F5405303221A60FB6803F56D
:10013000405304331B68FA6802F54052126802FB10
:1001400003F2FB6803F5405308331A60FB68BB6099
:10015000FB6803F54053183320221A60FB6803F54F
:1001600040531C3360221A60FB6803F54053203370
:1001700000221A60FB6803F54053243300221A6002
:10018000FB6803F5405314333B4A1A6001210420F5
:1001900001F0BAFE1023FB71FF23BB800323BB7168
:1001A0003B1D1946354801F09EFD344BDB681A466D
:1001B000FB6803F5405328331A60FB6803F540538E
:1001C0000C3300221A6000220D21012002F01AF8DF
:1001D0000246FB6803F5405330331A6000220C21BD
:1001E000012002F00FF80246FB6803F54053343358
:1001F0001A6000220A21012002F004F80246FB687E
:1002000003F5405338331A6000220521012001F024
:10021000F9FF0246FB6803F540533C331A600022A5
:100220000E21012001F0EEFF0246FB6803F540536A
:100230002C331A6000220121012001F0E3FF024665
:10024000FB6803F541531A6000220021012001F0F0
:10025000D9FF0246FB6803F5415304331A60B868BE
:1002600000F00EF8B86800F033F8BB681846103795
:10027000BD4680BD240000209029000800080140F0
:1002800080B487B000AF78607B68FB6000237B613F
:1002900016E000233B610DE0F9687A6913465B00C4
:1002A00013449B013A691344002221F813203B694F
:1002B00001333B613B69BF2BEEDD7B6901337B6121
:1002C0007B691F2BE5DD00BF1C37BD4680BC704736
:1002D00080B483B000AF786000BF0C37BD4680BCEF
:1002E0007047000080B48BB000AFF860B9607A60EE
:1002F0007B80FB683B62BB685F2B00F298867B6863
:100300003F2B00F294867B6803F00F03DB08FB6150
:10031000FB69002B06D1BB6823F00F02BB681344B6
:100320007B6209E0BB6823F00F035A00BB6803F04F
:100330000F03134410337B627B6803F00703BB6138
:100340007B681B09FB757B883B823B7CC3F3030303
:10035000DBB21A4613461B011344C24AD35CC24A9D
:10036000A2FB03231B09BB75BB7D03F00803002B15
:1003700000F08280FB7D032B7ED801A252F823F08F
:1003800091030008CB030008050400083F0400089F
:10039000BB6903F11802BB6903F11801386A0B4607
:1003A0005B000B449B01796A0B4430F8133043F037
:1003B000040398B2396A13465B0013449B017A6ABE
:1003C0001344024621F8132056E0BB6903F11802DA
:1003D000BB6903F11801386A0B465B000B449B01B3
:1003E000796A0B4430F8133043F0010398B2396A4C
:1003F00013465B0013449B017A6A1344024621F8BA
:10040000132039E0BB6903F11802BB6903F118013D
:10041000386A0B465B000B449B01796A0B4430F849
:10042000133043F4807398B2396A13465B00134467
:100430009B017A6A1344024621F813201CE0BB6931
:1004400003F11802BB6903F11801386A0B465B001F
:100450000B449B01796A0B4430F8133043F040039E
:1004600098B2396A13465B0013449B017A6A1344BD
:10047000024621F8132000BFBB7D03F00403002BCC
:1004800000F08280FB7D032B7ED801A252F823F07E
:10049000A1040008DB040008150500084F0500084A
:1004A000BB6903F11002BB6903F11001386A0B4606
:1004B0005B000B449B01796A0B4430F8133043F026
:1004C000040398B2396A13465B0013449B017A6AAD
:1004D0001344024621F8132056E0BB6903F11002D1
:1004E000BB6903F11001386A0B465B000B449B01AA
:1004F000796A0B4430F8133043F0010398B2396A3B
:1005000013465B0013449B017A6A1344024621F8A8
:10051000132039E0BB6903F11002BB6903F110013C
:10052000386A0B465B000B449B01796A0B4430F838
:10053000133043F4807398B2396A13465B00134456
:100540009B017A6A1344024621F813201CE0BB6920
:1005500003F11002BB6903F11001386A0B465B001E
:100560000B449B01796A0B4430F8133043F040038D
:1005700098B2396A13465B0013449B017A6A1344AC
:10058000024621F8132000BFBB7D03F00203002BBD
:1005900000F08980FB7D032B00F2858001A252F8D8
:1005A00023F000BFB5050008EF0500082906000884
:1005B0006D060008BB6903F10802BB6903F108017D
:1005C000386A0B465B000B449B01796A0B4430F898
:1005D000133043F0040398B2396A13465B001344A6
:1005E0009B017A6A1344024621F813205BE0BB6941
:1005F00003F10802BB6903F10801386A0B465B008E
:100600000B449B01796A0B4430F8133043F001032B
:1006100098B2396A13465B0013449B017A6A13440B
:10062000024621F813203EE0BB6903F10802BB69D2
:1006300003F10801386A0B465B000B449B01796AA1
:100640000B4430F8133043F4807398B2396A134680
:100650005B0013449B017A6A1344024621F813207D
:1006600021E000BF382E0008F1F0F0F0BB6903F183
:100670000802BB6903F10801386A0B465B000B44B2
:100680009B01796A0B4430F8133043F0400398B271
:10069000396A13465B0013449B017A6A134402468D
:1006A00021F8132000BFBB7D03F00103002B71D0A4
:1006B000FB7D032B6ED801A252F823F0CD06000873
:1006C000FF0600083107000863070008396ABA69A5
:1006D00013465B0013449B017A6A134431F81330CC
:1006E00043F0040398B2396ABA6913465B001344B5
:1006F0009B017A6A1344024621F813204AE0396AC2
:10070000BA6913465B0013449B017A6A134431F8BB
:10071000133043F0010398B2396ABA6913465B009B
:1007200013449B017A6A1344024621F8132031E0F6
:10073000396ABA6913465B0013449B017A6A134411
:1007400031F8133043F4807398B2396ABA691346AA
:100750005B0013449B017A6A1344024621F813207C
:1007600018E0396ABA6913465B0013449B017A6A40
:10077000134431F8133043F0400398B2396ABA6930
:1007800013465B0013449B017A6A1344024621F826
:10079000132000BF3B7CC3F30313DBB21A4613469E
:1007A0001B011344C24AD35CC24AA2FB03231B09A8
:1007B0007B757B7D03F00803002B00F08380FB7DBD
:1007C000032B7FD801A252F823F000BFDD070008F9
:1007D00017080008510800088B080008BB6903F1DE
:1007E0001802BB6903F11801386A0B465B000B4421
:1007F0009B01796A0B4430F8133043F0100398B230
:10080000396A13465B0013449B017A6A134402461B
:1008100021F8132056E0BB6903F11802BB6903F10C
:100820001801386A0B465B000B449B01796A0B4444
:1008300030F8133043F0200398B2396A13465B0056
:1008400013449B017A6A1344024621F8132039E0CD
:10085000BB6903F11802BB6903F11801386A0B4642
:100860005B000B449B01796A0B4430F8133043F46E
:10087000806398B2396A13465B0013449B017A6A1D
:100880001344024621F813201CE0BB6903F118024F
:10089000BB6903F11801386A0B465B000B449B01EE
:1008A000796A0B4430F8133043F4006398B2396A24
:1008B00013465B0013449B017A6A1344024621F8F5
:1008C000132000BF7B7D03F00403002B00F0828027
:1008D000FB7D032B7ED801A252F823F0ED0800081F
:1008E00027090008610900089B090008BB6903F19A
:1008F0001002BB6903F11001386A0B465B000B4420
:100900009B01796A0B4430F8133043F0100398B21E
:10091000396A13465B0013449B017A6A134402460A
:1009200021F8132056E0BB6903F11002BB6903F103
:100930001001386A0B465B000B449B01796A0B443B
:1009400030F8133043F0200398B2396A13465B0045
:1009500013449B017A6A1344024621F8132039E0BC
:10096000BB6903F11002BB6903F11001386A0B4641
:100970005B000B449B01796A0B4430F8133043F45D
:10098000806398B2396A13465B0013449B017A6A0C
:100990001344024621F813201CE0BB6903F1100246
:1009A000BB6903F11001386A0B465B000B449B01E5
:1009B000796A0B4430F8133043F4006398B2396A13
:1009C00013465B0013449B017A6A1344024621F8E4
:1009D000132000BF7B7D03F00203002B00F0898011
:1009E000FB7D032B00F2858001A252F823F000BFAB
:1009F000010A00083B0A0008750A0008B90A000845
:100A0000BB6903F10802BB6903F10801386A0B46B0
:100A10005B000B449B01796A0B4430F8133043F0C0
:100A2000100398B2396A13465B0013449B017A6A3B
:100A30001344024621F813205BE0BB6903F108026E
:100A4000BB6903F10801386A0B465B000B449B014C
:100A5000796A0B4430F8133043F0200398B2396AB6
:100A600013465B0013449B017A6A1344024621F843
:100A700013203EE0BB6903F10802BB6903F10801E2
:100A8000386A0B465B000B449B01796A0B4430F8D3
:100A9000133043F4806398B2396A13465B00134401
:100AA0009B017A6A1344024621F8132021E000BF1B
:100AB000382E0008F1F0F0F0BB6903F10802BB69C1
:100AC00003F10801386A0B465B000B449B01796A0D
:100AD0000B4430F8133043F4006398B2396A13467C
:100AE0005B0013449B017A6A1344024621F81320E9
:100AF00000BF7B7D03F00103002B71D0FB7D032B36
:100B00006ED801A252F823F0190B00084B0B000815
:100B10007D0B0008AF0B0008396ABA6913465B0009
:100B200013449B017A6A134431F8133043F01003E5
:100B300098B2396ABA6913465B0013449B017A6A1A
:100B40001344024621F813204AE0396ABA69134671
:100B50005B0013449B017A6A134431F8133043F06D
:100B6000200398B2396ABA6913465B0013449B01AB
:100B70007A6A1344024621F8132031E0396ABA69CF
:100B800013465B0013449B017A6A134431F8133017
:100B900043F4806398B2396ABA6913465B00134420
:100BA0009B017A6A1344024621F8132018E0396A3F
:100BB000BA6913465B0013449B017A6A134431F807
:100BC000133043F4006398B2396ABA6913465B0084
:100BD00013449B017A6A1344024621F8132000BF94
:100BE0007B7CC3F30303DBB21A4613461B01134499
:100BF000C24AD35CC24AA2FB03231B093B753B7D5F
:100C000003F00803002B00F08380FB7D032B7FD8CB
:100C100001A252F823F000BF290C0008630C000861
:100C20009D0C0008D70C0008BB6903F11802BB69D2
:100C300003F11801386A0B465B000B449B01796A8B
:100C40000B4430F8133043F0080398B2396A134666
:100C50005B0013449B017A6A1344024621F8132077
:100C600056E0BB6903F11802BB6903F11801386A49
:100C70000B465B000B449B01796A0B4430F8133040
:100C800043F0020398B2396A13465B0013449B0198
:100C90007A6A1344024621F8132039E0BB6903F154
:100CA0001802BB6903F11801386A0B465B000B445C
:100CB0009B01796A0B4430F8133043F4007398B207
:100CC000396A13465B0013449B017A6A1344024657
:100CD00021F813201CE0BB6903F11802BB6903F182
:100CE0001801386A0B465B000B449B01796A0B4480
:100CF00030F8133043F0800398B2396A13465B0032
:100D000013449B017A6A1344024621F8132000BF62
:100D10003B7D03F00403002B00F08280FB7D032B5E
:100D20007ED801A252F823F0390D0008730D000897
:100D3000AD0D0008E70D0008BB6903F11002BB69A7
:100D400003F11001386A0B465B000B449B01796A82
:100D50000B4430F8133043F0080398B2396A134655
:100D60005B0013449B017A6A1344024621F8132066
:100D700056E0BB6903F11002BB6903F11001386A48
:100D80000B465B000B449B01796A0B4430F813302F
:100D900043F0020398B2396A13465B0013449B0187
:100DA0007A6A1344024621F8132039E0BB6903F143
:100DB0001002BB6903F11001386A0B465B000B445B
:100DC0009B01796A0B4430F8133043F4007398B2F6
:100DD000396A13465B0013449B017A6A1344024646
:100DE00021F813201CE0BB6903F11002BB6903F179
:100DF0001001386A0B465B000B449B01796A0B4477
:100E000030F8133043F0800398B2396A13465B0020
:100E100013449B017A6A1344024621F8132000BF51
:100E20003B7D03F00203002B00F08980FB7D032B48
:100E300000F2858001A252F823F000BF4D0E000899
:100E4000870E0008C10E0008050F0008BB6903F1FA
:100E50000802BB6903F10801386A0B465B000B44CA
:100E60009B01796A0B4430F8133043F0080398B2C1
:100E7000396A13465B0013449B017A6A13440246A5
:100E800021F813205BE0BB6903F10802BB6903F1A1
:100E90000801386A0B465B000B449B01796A0B44DE
:100EA00030F8133043F0020398B2396A13465B00FE
:100EB00013449B017A6A1344024621F813203EE052
:100EC000BB6903F10802BB6903F10801386A0B46EC
:100ED0005B000B449B01796A0B4430F8133043F4F8
:100EE000007398B2396A13465B0013449B017A6A17
:100EF0001344024621F8132021E000BF382E0008D9
:100F0000F1F0F0F0BB6903F10802BB6903F10801DD
:100F1000386A0B465B000B449B01796A0B4430F83E
:100F2000133043F0800398B2396A13465B001344D0
:100F30009B017A6A1344024621F8132000BF3B7DCF
:100F400003F00103002B73D0FB7D032B70D801A2AB
:100F500052F823F0650F0008970F0008C90F00082A
:100F6000FB0F0008396ABA6913465B0013449B0102
:100F70007A6A134431F8133043F0080398B2396A9F
:100F8000BA6913465B0013449B017A6A1344024614
:100F900021F813204CE0396ABA6913465B00134408
:100FA0009B017A6A134431F8133043F0020398B27C
:100FB000396ABA6913465B0013449B017A6A134489
:100FC000024621F8132033E0396ABA6913465B0000
:100FD00013449B017A6A134431F8133043F40073CD
:100FE00098B2396ABA6913465B0013449B017A6A66
:100FF0001344024621F813201AE0396ABA691346ED
:101000005B0013449B017A6A134431F8133043F0B8
:10101000800398B2396ABA6913465B0013449B0196
:101020007A6A1344024621F8132000BF00E000BF93
:101030002C37BD4680BC704780B582B000AFAE4B48
:101040007B607B6803F541531B680121184601F062
:1010500025F97B6803F540530C331B68072B00F21E
:101060003B8101A252F823F089100008CD1000083E
:10107000111100085511000899110008DD11000830
:1010800021120008651200087B6803F540530C33F9
:1010900001221A607B6803F5405330331B6800213E
:1010A000184601F0FBF87B6803F5405334331B68A6
:1010B0000021184601F0F2F87B6803F540533833FD
:1010C0001B680021184601F0E9F808E17B6803F588
:1010D000405330331B680121184601F0DFF87B686C
:1010E00003F5405334331B680021184601F0D6F84D
:1010F0007B6803F5405338331B680021184601F024
:10110000CDF87B6803F540530C3302221A60E6E009
:101110007B6803F5405330331B680021184601F00B
:10112000BDF87B6803F5405334331B680121184632
:1011300001F0B4F87B6803F5405338331B68002195
:10114000184601F0ABF87B6803F540530C330322DB
:101150001A60C4E07B6803F540530C3304221A6024
:101160007B6803F5405330331B680121184601F0BA
:1011700095F87B6803F5405334331B68012118460A
:1011800001F08CF87B6803F5405338331B6800216D
:10119000184601F083F8A2E07B6803F540530C3356
:1011A00005221A607B6803F5405330331B68002129
:1011B000184601F073F87B6803F5405334331B681D
:1011C0000021184601F06AF87B6803F54053383374
:1011D0001B680121184601F061F880E07B6803F587
:1011E00040530C3306221A607B6803F540533033BA
:1011F0001B680121184601F051F87B6803F5405344
:1012000034331B680021184601F048F87B6803F569
:10121000405338331B680121184601F03FF85EE067
:101220007B6803F540530C3307221A607B6803F593
:10123000405330331B680021184601F02FF87B68BB
:1012400003F5405334331B680121184601F026F89A
:101250007B6803F5405338331B680121184601F0C1
:101260001DF83CE07B6803F540530C3300221A6004
:101270007B6803F5405330331B680121184601F0A9
:101280000DF87B6803F5405334331B680121184681
:1012900001F004F87B6803F5405338331B680121E3
:1012A000184600F0FBFF7B6803F5405310331B68C2
:1012B0005A1C7B6803F5405310331A607B6803F5B2
:1012C000405310331B68032B08D97B6803F5405348
:1012D000103300221A6001E000BF00E000BF7B680D
:1012E00003F541531B680021184600F0D7FF00BFEB
:1012F0000837BD4680BD00BF2400002080B400AF89
:10130000044B03F5405310331B681846BD4680BCA0
:10131000704700BF2400002080B400AF0A4B03F5E3
:1013200040530C331A68084B03F5405310331B68C5
:10133000DB001A4413465B001344DB01024A1344EA
:101340001846BD4680BC70472400002080B586B09A
:1013500000AF78607B68BB60B868FEF791FF002340
:101360007B6124E000233B611BE0396978697A697D
:1013700013465B0013445B011A463B6913440F4A52
:1013800032F813300246B868FEF7ACFFFF23FB606B
:1013900000BFFB685A1EFA60002BFAD13B6901338B
:1013A0003B613B695F2BE0DD7B6901337B617B69DE
:1013B0003F2BD7DD00BF1837BD4680BD942F0008F6
:1013C00080B582B000AF78607B68784A93420AD1DA
:1013D00001214FF4006000F0D3FD00214FF40060C4
:1013E00000F0CEFDDEE07B68B3F1804F08D1012133
:1013F000012000F0E3FD0021012000F0DFFDD1E03D
:101400007B686B4A934208D10121022000F0D6FD8F
:101410000021022000F0D2FDC4E07B68654A9342BF
:1014200008D10121042000F0C9FD0021042000F0B2
:10143000C5FDB7E07B68604A934208D101210820CE
:1014400000F0BCFD0021082000F0B8FDAAE07B6898
:101450005A4A934208D10121102000F0AFFD00212B
:10146000102000F0ABFD9DE07B68554A934208D107
:101470000121202000F0A2FD0021202000F09EFD8F
:1014800090E07B684F4A93420AD101214FF400500B
:1014900000F076FD00214FF4005000F071FD81E076
:1014A0007B68494A93420AD101214FF4002000F0A1
:1014B00067FD00214FF4002000F062FD72E07B68C0
:1014C000424A93420AD101214FF4801000F058FDA6
:1014D00000214FF4801000F053FD63E07B683C4A2C
:1014E00093420AD101214FF4001000F049FD002180
:1014F0004FF4001000F044FD54E07B68354A9342FD
:1015000008D10121402000F059FD0021402000F0C9
:1015100055FD47E07B68304A934208D10121802085
:1015200000F04CFD0021802000F048FD3AE07B688F
:101530002A4A93420AD101214FF4807000F03EFD07
:1015400000214FF4807000F039FD2BE07B68244AC5
:1015500093420AD101214FF4803000F011FD0021A7
:101560004FF4803000F00CFD1CE07B681D4A934274
:101570000AD101214FF4003000F002FD00214FF4A8
:10158000003000F0FDFC0DE07B68174A934209D162
:1015900001214FF4802000F0F3FC00214FF4802063
:1015A00000F0EEFC00BF0837BD4680BD002C0140B6
:1015B0000004004000080040000C00400010004003
:1015C0000014004000340140004C01400050014034
:1015D0000054014000180040001C00400020004062
:1015E00000400140004401400048014080B485B003
:1015F00000AF786039600023FB817B681B88FB812A
:101600007B682E4A934213D07B682D4A93420FD0B9
:101610007B68B3F1804F0BD07B682A4A934207D096
:101620007B68294A934203D07B68284A934208D1B9
:10163000FB8923F07003FB813B685A88FB891343C5
:10164000FB817B68224A93420CD07B68214A9342FB
:1016500008D0FB8923F44073FB813B68DA88FB895F
:101660001343FB817B68FA891A803B689A887B6800
:101670009A853B681A887B681A857B680F4A934273
:101680000FD07B680E4A93420BD07B68124A93427C
:1016900007D07B68114A934203D07B68104A93427B
:1016A00004D13B681B7A9AB27B681A867B68012258
:1016B0009A8200BF1437BD4680BC7047002C0140A1
:1016C000003401400004004000080040000C0040CD
:1016D0000010004000140040004001400044014060
:1016E0000048014080B485B000AF786039600023C5
:1016F0007B810023FB810023BB817B681B8C9BB219
:1017000023F010039AB27B681A847B681B8CFB81E0
:101710007B689B88BB817B681B8B7B817B8923F4E7
:10172000E0437B817B8923F440737B813B681B888A
:101730001B029AB27B8913437B81FB8923F0200330
:10174000FB813B681B891B019AB2FB891343FB8118
:101750003B685B881B019AB2FB891343FB817B6862
:10176000224A934203D07B68214A93422BD1FB89C2
:1017700023F08003FB813B685B891B019AB2FB89E4
:101780001343FB81FB8923F04003FB813B689B886B
:101790001B019AB2FB891343FB81BB8923F480634D
:1017A000BB81BB8923F40063BB813B689B899B00A1
:1017B0009AB2BB891343BB813B68DB899B009AB219
:1017C000BB891343BB817B68BA899A807B687A891D
:1017D0001A833B68DA887B681A877B68FA891A84DF
:1017E00000BF1437BD4680BC704700BF002C0140CD
:1017F0000034014080B485B000AF786039600023C8
:101800007B810023FB810023BB817B681B8C9BB207
:1018100023F480739AB27B681A847B681B8CFB81EB
:101820007B689B88BB817B689B8B7B817B8923F05A
:1018300070037B817B8923F003037B813B681A88DB
:101840007B8913437B81FB8923F40073FB813B6815
:101850001B891B029AB2FB891343FB813B685B889F
:101860001B029AB2FB891343FB817B68224A934295
:1018700003D07B68214A93422BD1FB8923F4006378
:10188000FB813B685B891B029AB2FB891343FB8196
:10189000FB8923F48063FB813B689B881B029AB21F
:1018A000FB891343FB81BB8923F48053BB81BB8934
:1018B00023F40053BB813B689B891B019AB2BB890F
:1018C0001343BB813B68DB891B019AB2BB8913437D
:1018D000BB817B68BA899A807B687A899A833B68E6
:1018E000DA887B689A877B68FA891A8400BF143784
:1018F000BD4680BC704700BF002C01400034014051
:1019000080B483B000AF78600B46FB70FB78002B8F
:1019100008D07B681B889BB243F001039AB27B68B6
:101920001A8007E07B681B889BB223F001039AB200
:101930007B681A8000BF0C37BD4680BC704780B4FE
:1019400083B000AF78600B46FB70FB78002B0CD0A7
:101950007B68B3F844309BB26FEA43436FEA53436A
:101960009AB27B68A3F8442009E07B68B3F844305E
:101970009BB2C3F30E039AB27B68A3F8442000BF66
:101980000C37BD4680BC704780B483B000AF786030
:101990000B467B8013467B707B78002B08D07B68DE
:1019A0009B899AB27B8813439AB27B689A8109E03B
:1019B0007B689B899AB27B88DB439BB213409AB2C7
:1019C0007B689A8100BF0C37BD4680BC704780B4ED
:1019D00083B000AF78600B467B8013467B707B78CA
:1019E000002B08D07B689B899AB27B8813439AB2FC
:1019F0007B689A8109E07B689B899AB27B88DB438C
:101A00009BB213409AB27B689A8100BF0C37BD46E7
:101A100080BC704780B483B000AF78600B467B8099
:101A20007B88DB439AB27B681A8200BF0C37BD46C5
:101A300080BC704780B500AF154A154B1B6843F05A
:101A4000010313601249124B5A68124B13404B604A
:101A50000F4A0F4B1B6823F0847323F48033136009
:101A60000B4A0B4B1B6823F480231360084A084B76
:101A70005B6823F4FE035360054B4FF41F029A602A
:101A800000F078F8044B4FF000629A6000BF80BD10
:101A9000001002400000FFF800ED00E080B485B0C7
:101AA00000AF0023FB600023BB6000237B602C4B56
:101AB0005B6803F00C03FB60FB68042B07D0082B6A
:101AC00009D0002B33D1274B274A1A6033E0254B2E
:101AD000254A1A602FE0224B5B6803F47013BB6049
:101AE0001F4B5B6803F480337B60BB689B0C023345
:101AF000BB607B68002B06D1BB681C4A02FB03F36A
:101B0000184A136017E0164B5B6803F40033002B90
:101B100006D0BB68154A02FB03F3124A13600AE0C1
:101B2000BB68114A02FB03F30E4A136003E00D4B3E
:101B30000D4A1A6000BF0A4B5B681B0903F00F03D4
:101B40000B4AD35CDBB2FB60064B1A68FB6822FAD7
:101B500003F3044A136000BF1437BD4680BC7047CE
:101B6000001002400000002000127A0000093D0031
:101B70000400002080B500AF00F002F800BF80BD77
:101B800080B483B000AF00237B6000233B603A4AFF
:101B9000394B1B6843F480331360374B1B6803F4E5
:101BA00000333B607B6801337B603B68002B03D1D3
:101BB0007B68B3F5A06FF0D12F4B1B6803F40033A3
:101BC000002B02D001233B6001E000233B603B6817
:101BD000012B4BD1294A294B1B6843F0100313609A
:101BE000264A264B1B6823F003031360234A234B2A
:101BF0001B6843F0020313601F4A1F4B5B6853606E
:101C00001D4A1D4B5B6853601B4A1B4B5B6843F4CA
:101C100080635360184A184B5B6823F47C1353604D
:101C2000154A154B5B6843F4E8135360124A124B94
:101C30001B6843F08073136000BF0F4B1B6803F0F9
:101C40000073002BF9D00C4A0B4B5B6823F00303A5
:101C50005360094A084B5B6843F00203536000BFBE
:101C6000054B5B6803F00C03082BF9D100BF0C3760
:101C7000BD4680BC704700BF0010024000200240FB
:101C800080B582B000AF114B7B60114B3B6007E029
:101C90003B681A1D3A607A68111D796012681A60F3
:101CA0003B680C4A9342F3D30B480C494FF00002B7
:101CB0008842B8BF40F8042BFADBFFF7BBFE00F008
:101CC000EBF800BF0837BD4680BD00BF945F000839
:101CD000000000201C0000201C000020D430002048
:101CE00080B400AFFEE780B489B000AF786039609F
:101CF0000023FB6100233B610023BB610023FB60E9
:101D000000237B610023BB603B68DB7803F00F039B
:101D1000FB613B68DB7803F01003002B05D03B68C8
:101D20009B781A46FB691343FB613B681B88DBB257
:101D3000002B44D07B681B687B610023BB6138E0CB
:101D40000122BB6902FA03F3FB603B681B881A4659
:101D5000FB6813403B613A69FB689A4226D1BB6934
:101D60009B00FB600F22FB6802FA03F3BB60BB68B9
:101D7000DB437A6913407B61FA69FB6802FA03F37B
:101D80007A6913437B613B68DB78282B05D10122FC
:101D9000BB699A407B685A6108E03B68DB78482B56
:101DA00004D10122BB699A407B681A61BB69013387
:101DB000BB61BB69072BC3D97B687A691A603B6832
:101DC0001B88FF2B46D97B685B687B610023BB6166
:101DD0003AE0BB690833012202FA03F3FB603B6877
:101DE0001B881A46FB6813403B613A69FB689A42BC
:101DF00027D1BB699B00FB600F22FB6802FA03F34B
:101E0000BB60BB68DB437A6913407B61FA69FB689E
:101E100002FA03F37A6913437B613B68DB78282B72
:101E200005D1BB69083301229A407B685A613B683F
:101E3000DB78482B05D1BB69083301229A407B68C7
:101E40001A61BB690133BB61BB69072BC1D97B68D0
:101E50007A695A6000BF2437BD4680BC704780B4A1
:101E600083B000AF78600B467B807A887B681A610C
:101E700000BF0C37BD4680BC704780B483B000AF54
:101E800078600B467B807A887B685A6100BF0C378C
:101E9000BD4680BC7047000080B500AFFFF7FEFD77
:101EA000FEF734F90246084B1A60074B1B681846C8
:101EB000FEF7E6F900F018FC034B1B681846FFF725
:101EC00045FA00F059FDFCE76C30002080B483B087
:101ED00000AF78600B46FB70FB78002B06D00949F9
:101EE000084B5A697B6813434B6106E00549054B73
:101EF0005A697B68DB4313404B6100BF0C37BD461A
:101F000080BC70470010024080B483B000AF78609E
:101F10000B46FB70FB78002B06D00949084B9A69E9
:101F20007B6813438B6106E00549054B9A697B6822
:101F3000DB4313408B6100BF0C37BD4680BC70474C
:101F40000010024080B483B000AF78600B46FB7095
:101F5000FB78002B06D00949084BDA697B681343EC
:101F6000CB6106E00549054BDA697B68DB4313402A
:101F7000CB6100BF0C37BD4680BC704700100240EB
:101F800080B483B000AF78600B46FB70FB78002B09
:101F900006D00949084BDA687B681343CB6006E03A
:101FA0000549054BDA687B68DB431340CB6000BF13
:101FB0000C37BD4680BC70470010024080B483B02F
:101FC00000AF78600B46FB70FB78002B06D0094908
:101FD000084B1A697B6813430B6106E00549054B02
:101FE0001A697B68DB4313400B6100BF0C37BD46A9
:101FF00080BC70470010024080B485B000AF03463B
:10200000FB710023FB60FB79062B26D801A252F856
:1020100023F000BF31200008372000083D200008D1
:1020200043200008492000084F20000855200008E0
:102030000D4BFB6012E00D4BFB600FE00C4BFB60A7
:102040000CE00C4BFB6009E00B4BFB6006E00B4B1C
:10205000FB6003E00A4BFB6000E000BFFB68184632
:102060001437BD4680BC704700080140000C014099
:10207000001001400014014000180140001C014004
:102080000020014080B485B000AF0346FB711023EF
:10209000FB81FB790F2B5BD801A252F823F000BF24
:1020A000E1200008E7200008ED200008F3200008E8
:1020B000F9200008FF200008052100080B21000876
:1020C00011210008192100082121000829210008F8
:1020D0003121000839210008412100084921000868
:1020E0000123FB8135E00223FB8132E00423FB81E5
:1020F0002FE00823FB812CE01023FB8129E0202323
:10210000FB8126E04023FB8123E08023FB8120E04C
:102110004FF48073FB811CE04FF40073FB8118E0E7
:102120004FF48063FB8114E04FF40063FB8110E007
:102130004FF48053FB810CE04FF40053FB8108E027
:102140004FF48043FB8104E04FF40043FB8100E047
:1021500000BFFB8918461437BD4680BC704700BFDE
:1021600080B485B000AF0346FB711023FB73FB798D
:10217000002B02D0012B03D005E01023FB7302E0FB
:102180000423FB7300BFFB7B18461437BD4680BC9D
:102190007047000080B485B000AF0346FB71002398
:1021A000FB60FB79062B27D801A252F823F000BF71
:1021B000CD210008D3210008D9210008DF21000823
:1021C000E5210008EB210008F12100080423FB6051
:1021D00012E00823FB600FE01023FB600CE02023DB
:1021E000FB6009E04023FB6006E08023FB6003E026
:1021F0004FF48073FB6000BFFB6818461437BD4680
:1022000080BC704780B586B000AF0346FB710B46BB
:10221000BB7113467B711F4B1B685A1C1D490A601A
:102220009B001D4A13447B617B69002B01D1002375
:102230002BE07B69FA795A707B69BA791A707B69ED
:102240007A799A70FB791846FFF7D6FE38617B7968
:102250001846FFF785FF0346FB73BB791846FFF767
:1022600011FF0346BB810323BB73FB791846FFF7BD
:1022700091FF034601211846FFF746FE07F10C03C4
:1022800019463869FFF72FFD7B6918461837BD4698
:1022900080BD00BF1C0000207030002090B585B0CC
:1022A00000AF78600B46FB707B68FB60FB689B7837
:1022B000012B24D0FB78012B10D1FB685B781846EA
:1022C000FFF79AFE0446FB681B781846FFF7DAFE14
:1022D000034619462046FFF7C2FD11E0FB685B7814
:1022E0001846FFF789FE0446FB681B781846FFF77F
:1022F000C9FE034619462046FFF7BFFD00E000BFB8
:102300001437BD4690BD000080B483B000AF786044
:102310007B681A684FF6FE7313407A6813607B6817
:1023200000221A607B6800225A607B6800229A6053
:102330007B680022DA607B68434A934206D1434AB5
:10234000424B5B6843F00F03536077E07B68404A81
:10235000934206D13D4A3D4B5B6843F0F003536026
:102360006CE07B683B4A934206D1384A374B5B6846
:1023700043F47063536061E07B68374A934206D14F
:10238000324A324B5B6843F47043536056E07B68DB
:10239000324A934206D12D4A2C4B5B6843F470239A
:1023A00053604BE07B682E4A934206D1274A274B65
:1023B0005B6843F47003536040E07B68294A9342B2
:1023C00006D1224A214B5B6843F07063536035E0CD
:1023D0007B68254A934206D1244A244B5B6843F02C
:1023E0000F0353602AE07B68214A934206D11F4ABB
:1023F0001E4B5B6843F0F00353601FE07B681D4A8F
:10240000934206D1194A194B5B6843F470635360D9
:1024100014E07B68184A934206D1144A134B5B6858
:1024200043F47043536009E07B68144A934205D13A
:102430000E4A0E4B5B6843F47023536000BF0C37A9
:10244000BD4680BC704700BF08000240000002404B
:102450001C0002403000024044000240580002408C
:102460006C00024080000240080402400004024068
:102470001C0402403004024044040240580402405C
:1024800080B485B000AF786039600023FB607B6862
:102490001B68FB60FB6823F4FF4323F07003FB60C1
:1024A0003B689A683B681B6A1A433B681B691A437E
:1024B0003B685B691A433B689B691A433B68DB696D
:1024C0001A433B685B6A1A433B689B6A1343FA688A
:1024D0001343FB607B68FA681A603B68DA687B68C4
:1024E0005A603B681A687B689A603B685A687B68E8
:1024F000DA6000BF1437BD4680BC704780B483B03B
:1025000000AF78600B46FB70FB78002B06D07B6831
:102510001B6843F001027B681A6006E07B681A685A
:102520004FF6FE7313407A68136000BF0C37BD4648
:1025300080BC704780B485B000AFF860B9601346C6
:10254000FB71FB79002B06D0FB681A68BB681A4345
:10255000FB681A6006E0FB681A68BB68DB431A4038
:10256000FB681A6000BF1437BD4680BC704700008E
:1025700080B483B000AF78607B6803F08053002B99
:1025800003D0064A7B68536002E0054A7B685360CB
:1025900000BF0C37BD4680BC704700BF000402403E
:1025A0000000024080B483B000AF0346FB710849CD
:1025B00097F907305B09FA7902F01F02012000FA4F
:1025C00002F241F8232000BF0C37BD4680BC7047A3
:1025D00000E100E080B483B000AF03463960FB71D6
:1025E00097F90730002B0BDA0D49FB7903F00F0345
:1025F000043B3A68D2B21201D2B20B441A7609E017
:10260000084997F907303A68D2B21201D2B20B44A6
:1026100083F8002300BF0C37BD4680BC704700BF65
:1026200000ED00E000E100E080B586B000AF0346B9
:10263000FB802948FEF7C4FE284AFB88138001234B
:10264000BB81264B1B883B8200237B8200233B758A
:1026500007F10C0319462048FEF7C8FF1F4B1B88E3
:102660000A331A4613465B0013445A0113441C4AAA
:10267000A2FB03235B09FB821A4B04229A80194BAD
:1026800000225A80174B00225A81164B0022DA8111
:10269000144AFB8AD38013490F48FFF723F801211E
:1026A0000D48FFF74CF901210B48FFF7B3F9012260
:1026B00001210948FFF768F902211920FFF78AFF75
:1026C0001920FFF76FFF01210348FFF719F900BF39
:1026D0001837BD4680BD00BF002C0140C03000202F
:1026E0001F85EB51C430002080B584B000AF0121BC
:1026F0000220FFF727FC01210420FFF723FC012122
:102700004FF40060FFF700FC01210C20FFF7FCFBF9
:102710004FF6FF733B801023FB700323BB703B46D7
:1027200019464E48FFF7DFFA44F201033B801823B5
:10273000FB703B4619464A48FFF7D5FA494B23221E
:102740001A80484B1B88013B1A46462303FB02F3C1
:10275000454AA2FB03235B09FB810123BB800023C5
:10276000FB80404B1B883B8100237B8100233B7314
:102770003B1D19463D48FEF739FF3D4B43F67F624E
:102780001A800123BB803A4B1B883B8100237B814D
:1027900000233B733B1D19463648FEF727FF364B97
:1027A00060221A80344B01225A80334B00229A80D7
:1027B000314AFB89D380304B02221A812E4B4FF4D1
:1027C00080729A812C492948FFF714F8284B1B88FE
:1027D00064331A4613465B0013445A011344224AD9
:1027E000A2FB03235B09FB81234B04229A80224B2B
:1027F00000225A80204B00225A811F4B0022DA818E
:102800001D4AFB89D3801C491A48FEF76BFF012241
:102810004FF400711548FFF7DAF801211348FFF76C
:102820008EF801211348FFF78AF801211148FFF7BC
:10283000F1F8012201210F48FFF7A6F80221192023
:10284000FFF7C8FE1920FFF7ADFE01210948FFF789
:1028500057F800BF1037BD4680BD00BF00080140DB
:10286000000C0140200000201F85EB5100040040B7
:10287000C0300020002C0140C430002080B58EB054
:1028800000AF78602048FFF73FFD01210120FFF7EE
:102890001DFB1E4BFB607B683B6110237B61C023EB
:1028A000BB610023FB6180233B624FF480737B623A
:1028B0004FF48063BB620023FB624FF400533B6321
:1028C00000237B6307F10C0319460F48FFF7D8FD7F
:1028D0004FF40010FFF74CFE012202210A48FFF7D7
:1028E00029FE01210848FFF709FE01211020FFF70A
:1028F00071FE1020FFF756FE01210548FFF700F892
:1029000000BF3837BD4680BD6C0002400C08014056
:102910000004004080B500AF4FF40010FFF728FE20
:1029200000210448FEF7ECFF00210348FFF7E6FD15
:1029300000BF80BD000400406C00024080B500AFC5
:1029400001210B48FFF766F8FEF776FBFEF7D6FC91
:102950000246084B33F812301846FFF765FEFEF7C3
:10296000DBFC03461846FFF789FF00BF80BD00BFB0
:10297000002C01401400002080B400AF034B4AF645
:10298000AA221A6000BFBD4680BC704700300040DC
:1029900020460A0F206000020507070A0802040407
:1029A00005060204020406040606070605050606D7
:1029B0000202060606060D070608060606070602B8
:1029C000060807090707060807070607090B09088D
:1029D00007030403070703060605060504060602A7
:1029E0000306020A0606060604050406070906078A
:1029F000060402040603FEFE1A1A1E1E001E1E0016
:102A000000000000B0F0B8B6F0B8B61A06021A0618
:102A100002023C7E66FFC6CC88041C183E181E0EBF
:102A20003C42423C00E0984640800000001806000E
:102A30000E10100E80DC7EF6DE0C80000E1E1818C4
:102A40001E0E1E081E1E0000E0F81C020E3E7080C6
:102A5000020CF8E080703E0E0C681E680C0000004E
:102A600000006060FCFC60600000060600000000E2
:102A7000987880808080020202020000181800F01E
:102A8000FE0E1C1E0200F8FC0606FCF8060E1818C6
:102A90000E063018FEFE00001E1E1C1E86C6FE7CA2
:102AA0001C1E1E1A18180C0E6666FE9C0C1C1818AC
:102AB0001E0EC0E03018FCFE00060606061E1E06AE
:102AC0003E3E3636F6E60E1E18181E0EFCFE66EE6C
:102AD000CC0E1E181E0E0606E6FE3E181E06000050
:102AE0009CFE6666FE9C0E1E18181E0E7CFEC6C658
:102AF000FEFC0C1C18181E0E0C0C060630309878C4
:102B0000E0E0B0B8180C00000206060CB0B0B0B09F
:102B1000B0B00202020202020C1838B0E0E00C066B
:102B2000060200001C1E86E67E3C00001A1A000009
:102B3000E0F038CCE6763666F6760CF8F00E3E70AD
:102B40006EDED8D8CEDED84C2E1200E0FC1EFCE0A3
:102B5000001E1E0606061E1EFEFE6666FE9C1E1E4D
:102B600018181E0EF8FC0E06060E1C18060E1C1871
:102B7000181C0E06FEFE060EFCF81E1E181C0E0685
:102B8000FEFE666666661E1E18181818FEFE66664D
:102B900066061E1E00000000F8FC0EC6CEDCD8063D
:102BA0000E1C18181E1EFEFE6060FEFE1E1E00009B
:102BB0001E1EFEFE1E1E00000000FEFE0E1E181849
:102BC0001E0EFEFEC060F8DC0E061E1E0000000693
:102BD0001E18FEFE00000000001E1E18181818180F
:102BE000FEFEF8E080E078FEFE1F1F00030F0300EA
:102BF0001F1FFEFE7CE080FEFE1E1E00020E1E1E3B
:102C0000FCFE060606FEFC0E1E1818181E0EFEFE22
:102C1000C6C6FE7C1E1E00000000F8FC0E06060E56
:102C2000FCF8060E1C181A1C0E1AFEFE66E6E63E9E
:102C30003C1E1E0002061E1C3C7E6666C6DE9C0E06
:102C40001E1818181E0E0606FEFE060600001E1EA2
:102C50000000FEFE0000FEFE000E1E18181E0E00F4
:102C60000E7EF8C000C0F87E0E0000061E1C1E0678
:102C700000001EFEF000FC06FC00F0FE1E00061E1A
:102C80001C0600061C1E060002061CF8E0F81C06C6
:102C90000210180E0600060E18100E3C70E0E070D0
:102CA0003C0E0000001E1E0000000686E6F63E1EDA
:102CB0000E1E1E1A18181818FEFE06FEFEC01EFE76
:102CC000F80000061E1E06FEFEC0FEFE40783E0610
:102CD0003E784000000000000000000000000000FE
:102CE0000040404040404040020604000000607048
:102CF000B0B0F0E00E1E1A0A1E1EFEFE3030F0E0EC
:102D00001E1E18181E0EE0F03070600E1E181C0CEF
:102D1000E0F03030FEFE0E1E18181E1EE0F0B0F07F
:102D2000E00E1E181C0C30FCFE36001E1E00E0F0EB
:102D30003020F0F04EDE9898FE7EFEFE6030F0E02F
:102D40001E1E00001E1EF6F61E1E00F6F6C0FE7EBB
:102D5000FEFEC0E0B0181E1E00020E18FEFE1E1E73
:102D6000F0F02030F0E02030F0E01E1E00001E1ECB
:102D700000001E1EF0F02030F0E01E1E00001E1E9F
:102D8000E0F03030F0E00E1E18181E0EF0F030307B
:102D9000F0E0FEFE18181E0EE0F03030F0F00E1ECF
:102DA0001818FEFEF0F020301E1E000060F0B0305B
:102DB000600C181A1E0C30FCFE30000E1E18F0F0CD
:102DC0000000F0F00E1E18081E1E70F0C000C0F0CB
:102DD0007000061E1C1E0600F0F000F070F000F0FF
:102DE000F0001E1C1E001E1C1E001070E0E0701083
:102DF000101C0E0E1C1030F0C000C0F030C0C2FE1F
:102E00007C1E02003030B0F07030181C1E1A1818EA
:102E100080FC7E06027EFCC0FEFEFEFE067EFC807E
:102E2000C0FC7E02E06060C0C0E000000000000066
:102E3000FC04FC1E101E000000000000000000004A
:102E40000000000000000000000000000000000082
:102E50000000000001010101010101010101010166
:102E6000010202020202020202030303030303033C
:102E700004040404040505050506060606070707FD
:102E8000070808080909090A0A0A0B0B0B0C0C0DA4
:102E90000D0D0E0E0F0F101011111212131314142A
:102EA0001515161617181819191A1B1B1C1D1D1E8F
:102EB0001F202021222323242526272728292A2BC7
:102EC0002C2D2E2F303132323334363738393A3BCD
:102ED0003C3D3E3F40424344454648494A4B4D4EA7
:102EE0004F515253555657595A5C5D5F6062636546
:102EF0006668696B6D6E7072737577787A7C7E7FA9
:102F000081838587898A8C8E90929496989A9C9ECC
:102F1000A0A2A4A7A9ABADAFB1B4B6B8BABDBFC1AA
:102F2000C4C6C8CBCDD0D2D5D7DADCDFE1E4E7E93F
:102F3000ECEFF1F4F7F9FCFF4E65776C696E650014
:102F4000436F6C6F720000005265640047726565E4
:102F50006E000000426C7565000000004D61676501
:102F60006E74610059656C6C6F7700004379616E17
:102F70000000000057686974650000004C616E67CE
:102F80000000000042616E676C61000053697A6561
:102F9000000000003E042E032E033D05880AA60D06
:102FA000950D950C950C960C950C950C950C950C17
:102FB000950C950C950C950C950C950C950C950C09
:102FC000950C950C950C950C950C950C950C950CF9
:102FD000950C950C950C950C950C950C950C950CE9
:102FE000950C950C950C950C950C960C950C950CD8
:102FF000950D950C960DA60D950C840A6308520745
:1030000052065306630752066307520651065107DC
:10301000510861086309840A960CA60D960D950C5B
:10302000950C950C950C950C950C950C950C950C98
:10303000950C950C950C950C950C950C950C950C88
:10304000950C950C950C950C950C950C950C950C78
:10305000950C950C3E042E032E032E032E034C06D6
:10306000880BA50D950D950C950C950C950C950C54
:10307000950C950C950C950C950C950C950C950C48
:10308000950C950C950C950C950C950C950C950C38
:10309000950C950C950C950C950C950C950C950C28
:1030A000950C950C950C950C950C950C960C960C16
:1030B000A60D960C74095206420542055305630697
:1030C000520653067508850974087408510652079C
:1030D0007308610861074005400551076208850BC8
:1030E000960D950C950C950C950C950C950C950CD6
:1030F000950C950C950C950C950C950C950C950CC8
:10310000950C950C950C950C950C950C950C950CB7
:10311000950C950C3E042E032E042E032E032E0335
:103120002E035B07980CA50D950D950C950C950C31
:10313000950C950C950C950C950C950C950C950C87
:10314000950C950C950C950C950C950C950C950C77
:10315000950C950C950C950C950C950C960C950C66
:10316000950C950C950D950C950C960DA60D850A54
:103170005206320343045205530664078609860942
:103180007508750765076506760689079B079C081D
:103190009B088A089B08AC088A07870753064105E5
:1031A0005107850BA60D960C950C950C950C950C5E
:1031B000950C950C950C950C950C950C950C950C07
:1031C000950C950C950C950C950C950C950C950CF7
:1031D000950C950C3E042E042E032E032E042E0473
:1031E0002E032E032E036A08A60D950D950C950C43
:1031F000950C950C950C950C950C950C950C950CC7
:10320000950C950C950C950C950C950C960C950CB5
:10321000950C950C950C950C950C950C950C960CA5
:10322000950C950C960C960CA60D7409310552055B
:1032300063077508860998097608530554065406ED
:1032400077079B099C08AD09AE09BE09BE09AE0807
:10325000AE08AF08AE08AF089E089E07AF08AE09DB
:10326000890742055107950C960D950C950C950C08
:10327000950C950C950C950C950C950C950C950C46
:10328000950C950C950C950C950C950C950C950C36
:10329000950C950C3E042E032E032E032E032E04B4
:1032A0002E042E032E042E033C05880BA50D950C31
:1032B000950C950C950C950C950C950C950C950C06
:1032C000950C950C950C960C950D950C950C960CF3
:1032D000950C960D960D960C960C950C950C950CE0
:1032E000950C960CA70D850A52066406740886098B
:1032F0009809750853065306660789089C09AE08A5
:103300009E08AE08AE08AE08AE08AE08AE08AE071E
:10331000BE09BE08BE08BE09AE08AE089E08AE08CB
:103320009E07AE088A075205830B960D950C950CE7
:10333000950C950C950C950C950C950C950C950C85
:10334000950C950C950C950C950C950C950C950C75
:10335000950C950C3E042E032E042E032E042E04F1
:103360002E042E042E042E032E032E035B07A70C1F
:10337000950D950C950C950D950C960C950C950C42
:10338000950C950C950C960D950C960C960D960C2F
:10339000960D960D960D960D960D960D960C960C17
:1033A000A70D960B63086207980ABB0CCC0C640748
:1033B0005106540677078A089D089E089D089E08B6
:1033C000AE08AE08AE08AE07AE08BE09BE09BE091B
:1033D000BE09BE09BE09BE08BE08BE09BE09AE09C7
:1033E000AE079E079E079E087708840B960D950CE6
:1033F000950C950C950C950C950C950C950C950CC5
:10340000950C950C950C950C950C950C950C950CB4
:10341000950C950C3E042E042E032E042E042E0330
:103420002E032E042E042E042E042E042E033D04FF
:10343000890AA60D960D950C960C960C950C950C7C
:10344000950C960D950C960C960D960C960D960D6A
:10345000960D960D960D960D950C960D960C840B6B
:1034600062075306A90ABB0BEE0DCC0C970986091F
:1034700088089B089D089D089D079E079E089E073B
:103480009E07AE07AE08AE08AE08AE089E07AE08AF
:10349000AE08AE08BE09CE09AE08BE09BE0ACE0A05
:1034A000AE089E079E079E079E078908840A940C13
:1034B000950C950C950C950C950C950C950C950C04
:1034C000950C950C950C950C950C950C950C950CF4
:1034D000950C950C3E042E042E042E042E042E046E
:1034E0002E042E042E042E042E042E042E032E034E
:1034F0002E035B08A70DA50D960C960D960C960D48
:10350000950C960D960D960D960D960D960D960DA5
:10351000960D960D960D960D960D960C860A7507CE
:10352000640776089809CC0CCD0CAA0A860999097B
:103530009A089B08AC089D089D089E08AE08AE0836
:10354000AE089E079D07AE07AE08AE08AE07AE07F1
:10355000AE08AE08AE08BE09BE09BE09AE09AE0887
:103560009E079E079D078D078E078E078B08A80B69
:10357000950BA60D950C950C950C950C950C950C32
:10358000950C950C950C950C950C950C950C950C33
:10359000950C950C3E042E042E042E042E042E04AD
:1035A0002E042E042E042E042E042E042E042E048B
:1035B0002E032E034C06970CA60D960C960C960D1A
:1035C000960C960C960D960D960D960D960D960CE6
:1035D000960D960C960D960DA80C970A7507540635
:1035E00064078709BB0BDD0C9809860987089909D0
:1035F000BC0ACD0BAD099D079D089D089E08AE082D
:103600009D089E07AD08AE08BE08BE08BE08BE09EC
:10361000BE09AE08AE08AE08BE08AE089D079E07FC
:103620009E07AE089D079D079D089D078D079A0977
:1036300098097508960B960C950C950C950C950CA5
:10364000950C950C950C950C950C950C950C950C72
:10365000950C950C3E042E042E042E042E042E04EC
:103660002E042E042E042E042E042E042E042E04CA
:103670002E042E042E033D04970CA60D960C960DD9
:10368000960C960C960C960C960D960D960D960D26
:10369000960D960C960DB90D8609640742056507CF
:1036A0009809AA0BA90A6507AA0B9809AB0ABB0BD4
:1036B000A90AAB099C089D079D079D089D079D07CA
:1036C0009D08AE08BE09BE09BE09DF0BDF0BCE0B9D
:1036D000CE0ACE0BDF0BAE08CE0BBE09BE0ADE0B48
:1036E000CE0BCE0ACE0AAD08AD089D079D078B070D
:1036F0008907BC0B8608970AA70D950C950C950CAD
:10370000950C950C950C950C950C950C950C950CB1
:10371000950C950C3E042E042E042E042E042E042B
:103720002E042E042E042E042E042E042E042E0409
:103730002E042E042E032E034704A40BA70D960D72
:10374000960C960D960D960C960D960D960D960C64
:10375000960D960D960C8509520553066407870948
:10376000BA0B880987099909A909990A970986094D
:10377000990878068C079E079D08AD099D08AE083C
:10378000BE08BE09BD09BD09BD09BC099A07880765
:1037900078068A089D088C07AE09DE0A9D07AE08E8
:1037A0009E08AD08AD08AE08BE09AE089D078C079F
:1037B00078078608AA0B63067308960D950C950C7E
:1037C000950C950C950C950C950C950C950C950CF1
:1037D000950C950C3E042E042E042E042E042E046B
:1037E0002E042E042E042E042E042E042E042E0449
:1037F0002E042E042E042E04490370057107940B29
:10380000A60DA60D960D960D960D960D960C960D81
:10381000960DA60D950BA90A530642048709AA0B1B
:10382000980A64067508970964077607740875078F
:103830007A079D078D079E079D07AD099C088B079A
:103840008A0878079A0888077607610651054105B6
:103850006206520665068A079E07BE098D077B062B
:103860008C07650642054205750787079A08AC086C
:103870009B087707740774086306850B960D950CF3
:10388000950C950C950C950C950C950C950C950C30
:10389000950C950C3E042E042E042E042E042E04AA
:1038A0002E042E042E042E042E042E042E042E0488
:1038B0002E042E042E042E04490480067005700583
:1038C00070067208A60D960D950C960C960D960D29
:1038D000960DA70CBA0B430553056507AA0A980A6B
:1038E00087096306640776089709740863068A07E0
:1038F0009C089D078D079D079C088A088A078C07EE
:103900009D079E07AE08AD088A0766065305530556
:103910005405540554058B078D068D068D067806D3
:103920005406530541044104410550064005530522
:1039300076078A075406730752065205960C960CB2
:10394000950C950C950C950C950C950C950C950C6F
:10395000950C950C3E042E042E042E042E042E03EA
:103960002E042E042E042E042E042E042E042E04C7
:103970002E042E042E042E044704800680068006A2
:1039800070057209A70D960D960D960D960D960D64
:10399000A60DA90C870854066406770887089809BD
:1039A00086085206750875086407520565069C0767
:1039B0008C079C079D078C078A078A078B079D0742
:1039C0008C0768066706870767066505410440059A
:1039D00052065305680679058D08BE099C075505F2
:1039E0005205530543054205540554068A078A07C4
:1039F0006706640678086306630642046307A60D3B
:103A0000950C950C950C950C950C950C950C950CAE
:103A1000950C950C3E042E042E042E042E042E0428
:103A20002E042E042E042E042E042E042E042E0406
:103A30002E042E042E042E045304800680067005E6
:103A40007006A50CA70D960D960D960D960D960D6C
:103A5000A60DCB0C75074305640775077608760835
:103A600075074205860864066407420477078A07DB
:103A70008B079C079C078B078A078B079C086706A8
:103A800065068908770645055505550566067607D6
:103A9000760766069C089D079E07CE0ABF098B071E
:103AA000770676075205420565067607770679069A
:103AB0008D07770677076206530543053104960C98
:103AC000950C950C950C950C950C950C950C950CEE
:103AD000950C950C3E042E042E042E042E032E0469
:103AE0002E042E042E042E042E042E042E042E0446
:103AF0002E042E042E043C047105700580068006F9
:103B000060044003950CA60D960D960D960D960D2E
:103B1000A80DBA0B6506640786085306750753059A
:103B20007507420475085305630641047707790752
:103B30008A068B068B0779068A07770742055206A5
:103B40005305520576074303440444047807670687
:103B50009C088A087A069D078D079D06AE089D0879
:103B600068058A079A0888085505540543045205D4
:103B70005405890779075206620643053204850A0F
:103B8000960D950C950C950C950C950C950C950C2B
:103B9000950C950C3E042E042E042E032E032E04A9
:103BA0002E032E042E042E042E042E042E042E0486
:103BB0002E042E042E044604600470057005700562
:103BC00070056004930BA70D960D960D960D960D3E
:103BD000CA0D76076406530575083103740752054C
:103BE00064065306750863064204410577077806A4
:103BF0008A069D078C078C077A0754067607780695
:103C000079068B079D07AD088D079E078E078E06E8
:103C10009D08AD099E088D068D069E06AE07CF094C
:103C2000AE079D088907CD0B77065605430442046D
:103C3000300454049C07760651055305320364088A
:103C4000A60D950C950D950C950C950C950C950C59
:103C5000950C950C3E042E032E032E042E042E04E8
:103C60002E042E042E042E042E042E042E042E04C4
:103C70002E042E044B047105700570057005700547
:103C8000700560037107A70DA60D960D960DA60D84
:103C9000A80C3204750764078608410452055306D0
:103CA00053057508520642055205710788088B07AF
:103CB0008B068D07AE08AE089D089D088D078E0700
:103CC0009E07AE08AE089D089E08AE079E079D069B
:103CD000AE07CF0A9E078D068D07AE07AE07BF0958
:103CE000CF09AE079E078C078C067D067C067C06F6
:103CF00064063104790689075106420532046308D7
:103D0000A60D950C950C950C950C950C950C950C99
:103D1000950C950C3E042E042E042E042E042E0425
:103D20002E042E042E042E042E042E042E042E0403
:103D30002E043D0472058006700560046004600472
:103D4000700570056004830AA70D960D960DA60DEB
:103D5000A80C300443056406850842054205310479
:103D600064079709630742044205610788078B06C9
:103D70008C068E06AE08BE09AE09AE09AE09AE09C4
:103D8000AE08AE08BE09BE09AE089E07AE08CF0950
:103D9000CE0A9E078D078D078D078D069F07CF0AD8
:103DA000DF0CCE09AE08AE08AE08AE089E088D073F
:103DB0008B0776067B069D07610653063103740A5E
:103DC000A60D960C950C950C950C950C950C950CD8
:103DD000950C950C3E042E042E042E032E032E0467
:103DE0002E042E042E042E042E042E042E042E0443
:103DF0003D0473058006800670056005600460045C
:103E00006004700560045004940BA70DA60DA70D67
:103E1000A60C5006210375085306410552064205BB
:103E20008709640753065205620662078907790607
:103E30008B068E079E079E07AE08AE08AE08AE083A
:103E4000AE08BE09BE09AE08AE07AE08BF09BE097E
:103E5000BE099E078E079E088B068D079E07BE0A29
:103E6000DF0CBE089E07AE08AE089D079E07AE0891
:103E70009E079D079D079E08530653063103970C26
:103E8000960D950D950C950C950C950C950C950D26
:103E9000950C950D3E042E042E042E042E042E04A3
:103EA0002E042E042E042E042E042E042E043C0474
:103EB0006305800580067005700570056005600566
:103EC00060046005700550045004A50CA70DA60DF4
:103ED000A70D6108300331044205630763075206EA
:103EE000970A420441047408630763077706890749
:103EF0009B079D079D079E07AE08AD089E07AE086D
:103F0000BE09CF0BBE09BE09AE08CF09CE0ABE0955
:103F1000AE088E069E07AF08AF088E078D078E0687
:103F20008E069F079D079D07BF09BE08BE09BE09F3
:103F3000AE089E07AE08AE08660642055206A70DFB
:103F4000960C950C950C950C950C950C950D950C67
:103F5000950C950C3E042E042E042E032E042E03E5
:103F60002E032E042E042E042E042E044A04720462
:103F70008006800680067005700570056005600586
:103F8000700570057005600460047108A70DA60D2A
:103F9000A70D940B3004400430044205530641043D
:103FA00052065205630663065205510577077807E6
:103FB00089069B079B079D079C07AC08AD08AE08C8
:103FC000AE08BE09AE08BE0ADF0CDF0BAE089E07C6
:103FD0009D079E079E089C078A06660666069B0745
:103FE0008B068B07640667069E07CF0ABE08BE08CD
:103FF000BE09AE078D079E0799083003840BA60DF6
:10400000960D960C960D960C960D960D950D950C9D
:10401000950C950D7405660559055B053D043E0438
:104020002E042E043E043D045905740580057005D8
:1040300070058006700570057006700570057006C5
:104040007005700570056005700560057209A70DA3
:10405000A70DB70D6207300353068B089D0879063C
:104060006506530542055305520552067607770744
:10407000890789079B079D079C089C09AC089D0838
:10408000AE08CE09BE09CE0BCE0ABF098E06BE0A07
:104090007A066806430430033003310431046506B0
:1040A000770653053004410455059E07BE09BE0836
:1040B000AE08AE08AE089E079C084105A70D960DF8
:1040C000960D960C960D960D960D960D960D960DD9
:1040D000960C960C810670057005700570057206C9
:1040E00073066305720570058006800680077005FB
:1040F0007005800670057004700570057005700508
:104100007005700670057005700570046004940BEE
:10411000A70DA70DB70D5106420542044204430402
:1041200067068B077707430442055206760789081E
:1041300089078A078B079D079D07AC09AC099D0875
:10414000AE08BE08BE09CE0AAE089E079E07CF0A7B
:104150007906440543054404660564055305520584
:10416000530542044104420578069E069E07CE0987
:10417000BE08AE079E079E079D076109A70D960D15
:10418000960D960D960D960D960D960D960D960C18
:10419000960D960C810780068006700570057005E7
:1041A0007005700560056004700580067005700577
:1041B0006005800690078006700570067005700522
:1041C0007005700580067005700570056004500567
:1041D000A60CA70DA70DB70D4104420552054104D9
:1041E00032037906770653065307620776079A0863
:1041F000870789079D089D079D079C07AD089D07B8
:104200009E07AE07AE08AE089E079E07AE08AE0832
:10421000AF08BF08AF08BF08AE08CE0B98097507F6
:10422000530564078608840877069E078D06BE0935
:10423000AE08AE089D079E07AD07840AA70D960D30
:10424000960D960DA60D960D960D960D960D960C47
:10425000960D960C81078006800680067005800505
:1042600080067006700570056004700570057005A5
:10427000600460048006900780068007800780063F
:104280007005700580057005800670066004600585
:104290007107A70DA70DA70D410431048A089D07DA
:1042A0005605310442058808750777079B088A0779
:1042B000890779079C089D079D079D089D079D0715
:1042C0009E079E07BE09AE089E07AE07AE08AE0861
:1042D000AE08BE09BE0AAB09990998096507990994
:1042E000BC0B8608860886089908AE088D069E06CF
:1042F000AE089E068D068D06AD08850AA60DA60D94
:10430000A60DA60DA60DA60D960DA60D960D960D45
:10431000960D960D71057005700580057005800578
:1043200080057005700570057004700470067005D6
:1043300060046004600480068006800680058006B4
:1043400080067005700570057005700570057005B4
:1043500050037209A80DA70D650655066406690687
:104360008B0730036506760798089C088B078B0738
:104370008B0789079C089D079D079E089E089D073F
:104380009E07AE08AE08AE07AE07AE08AE08AC0991
:10439000BD0A9A09BB0BAA0A97095405430565068D
:1043A0009908520652067408A90ACD0A9D088D067E
:1043B0009E079E078D068D069D07960CA60DA60DE1
:1043C000A60D960DA60DA60DA60DA60D960D960D85
:1043D000A60DA60D960B950A940A82097007600532
:1043E0006004700570057005800560048006800615
:1043F0007005600460046005800680068006800603
:104400007005700560057005700570067005500434
:104410005005A60CA70DA70D770855059D08670444
:104420007906430444059A0889079C088B078B0783
:104430008B078A069C079D079D079D079D079D0783
:104440009E07AE08AE08AE08AC08BC0ACD0CBB0B8C
:10445000990A86095205650676079A089B08BD08E1
:10446000AD089C08670642046206AA0ACD0B9B07AA
:104470009E079E078D068C058C06970CA60DA60D33
:10448000A60DA60DA60DA60DA60DA60D960D960DB4
:10449000960DA60DA70DA60DA60DA70DA70DA50C93
:1044A000820870066004600470047006700670056F
:1044B0006005600560057005600470059007900751
:1044C0008006700560057005800670056004610651
:1044D000960CA70DA70DA70DA80C7A069D078D06B3
:1044E0008C06AD07570467069A089C078B078A0756
:1044F0008B078B078B079E079D079D089D078D07E0
:104500009E06AE08BE09AB09980ABB0B7607520699
:104510004205530554056406750777067606760747
:10452000660676067707640641045306A80AA909B9
:104530009D078E068D068D058C05970CA60D960D94
:10454000A60DA60DA60DA60DA60DA60DA60DA60DD3
:10455000A60D960DA60DA60DA60DA60DA60DA70DD2
:10456000A70DA70DA60C93096005600470068006D0
:1045700060046004700570057005500460048006D6
:104580009007800660057005700550047208B70D2D
:10459000A70DA70DA70DA70DA70DAD0845048A0708
:1045A0009E07AF08AE08780689079C078C078A0724
:1045B0008B078A078B079D079D08AD089D079D0700
:1045C0009E07AE08BE0A63076207740741054104EF
:1045D000420442044305540544054404430444048E
:1045E0004304310441034204640642044204640665
:1045F000BA0A9E078D068C068B05970BA60DA60D95
:10460000960DA60D960DA60D960DA60DA60DA60D42
:10461000960DA60DA70DA60DA60DA60DA60DA60D11
:10462000A60DA60DA70DA80DA60C610650049008B6
:104630008007700670056005600460046004500423
:1046400070058006700570056004820AB80EA70D1B
:10465000A70DA60DA70DA70DA70DAA0B8B069D07ED
:10466000AF08AE08AE089B0889089C079C088A071B
:10467000790689079B089E089E08AD089D079D073F
:104680009E07AE08AD0841044105410441045505AB
:1046900079068B07AE089E07AF08AF09AE08AE08D3
:1046A0009D078D088C0767064204520541044104AA
:1046B00063069E078D068C068B06970BA60DA60D2E
:1046C000A60DA60D960D960DA60DA60DA60DA60D72
:1046D000A60DA60DA60DA60DA60DA60DA60DA60D42
:1046E000A60DA60DA60DA60DA70DA60C50048007BD
:1046F0008006800770056005600560046004600541
:10470000600470058006800650048309B80DA70D6B
:10471000A60DA70DA70DA70DA70DA70D9B089E071A
:10472000BF08BE09CF098A0788078B078B0789074F
:104730008907890889078B078C07AD089B078B07BA
:104740009D079E07AF088A0866078707AD08AE0871
:104750009E079E07AE07AE07AE089E07AE08AE08DE
:10476000AF089E079E079E079D07780541044004F9
:1047700066069E078D068C068B05970BA60DA60D6B
:10478000A60DA60DA60D960D960DA60DA60DA60DB1
:10479000A60D960DA60DA60DA60DA60DA60DA60D91
:1047A000A60DA60DA60DA60DA60DB80D70078006C8
:1047B0006005600460047005700570057005700682
:1047C00060056004700570056004830AB80DA70DCC
:1047D000A60DA60DA70DA70DA70DA70DA80B7A076F
:1047E0008D069E077C06540687088A078A07790784
:1047F0008907780677078B078C079C089C078A0730
:104800008C079D079E07AD08BE09AE089E079E0750
:10481000AE08AE089E089D089D088A07890789078B
:1048200089068A079D079D069D079E079C087706B7
:104830009D089E078D068B068906980BA60DA60D72
:10484000A60DA60DA60DA60DA60D960DA60DA60DE0
:10485000A60D960DA60DA60DA60DA60DA60DA60DD0
:10486000A60DA60DA60DA60DA60DA80D940B500520
:104870006004700560056004500350045005500545
:104880005005600660056005600450057309A70DBA
:10489000B80DA70DA70DA70DA60DA70DA70DA70D68
:1048A000A70C42043104740889088A088A0779072A
:1048B00078077807780777078B078C078C078A07B4
:1048C0008A078B079E08AE08BE09AE089D079E08A2
:1048D000AE089E089E079E079E089E089E078C07AE
:1048E0009C078C089D079D079D079D079D079C07BA
:1048F0009D068D068C068A0688069D06990BA60DD8
:10490000A60DA60DA60DA60DA60DA60DA60D960D1F
:10491000A60D960DA60DA60DA60DA60DA60DA60D0F
:10492000A60DA60DA60DA60DA60DA60DA70DA60CEF
:10493000950B950B950B950B950BA60CA70DB70D2D
:10494000B70DB80DB70DA50C720950064004400311
:104950006208A60DA70DA70DA70DA70DA70DA70D02
:10496000B80D630831036408870889087907890846
:10497000780788087707780778078B089C078D07E2
:1049800079078A078C089D089E08AE089E07AE0826
:10499000BE09AE089E079D07AE08AE08AE08AE0879
:1049A0009E079E078D078D078D079D078D079D0725
:1049B0008B078B067A06890676068C05990AA60D62
:1049C000A60DA60DA60DA60DA60D960DA60DA60D5F
:1049D000960D960DA70DA60DA60DA60DA60DA60D5E
:1049E000A60DA60DA60DA60DA60DA60DA70DA70D2D
:1049F000A70DA70DA70DA70DA70DA70DA70DA70D17
:104A0000A70DA70DA70DA70DB80DB80DB70DA60CD6
:104A1000840A730BA80DA70DA70DA70DA70DA70D51
:104A2000A80DA60C300353078508760779068A0778
:104A30007807780777077607780788088B078C0749
:104A40008B078A078B079C08AE07AE089E079E0857
:104A5000BE09AE09BE09BF09CE0ACE0ABE09BE090B
:104A6000BE09BE09AE089E089E079E088D078C07EA
:104A700089077806790679066407960CA70DA60DB6
:104A8000A60DA60DA60DA60DA60DA60DA60DA60D8E
:104A9000A60D960DA70DA60DA60DA70DA60DA60D8C
:104AA000A60DA60DA60DA60DA60DA70DA60DA60D6D
:104AB000A60DA60DA60DA70DA60DA60DA70DA70D5B
:104AC000A70DA60DA70DA70DA70DA70DA70DA70D47
:104AD000A70DA70DA70DA70DA70DA70DA70DA70D36
:104AE000A70DB80D410541056408760876078708CB
:104AF00088087807780766076706880878068907B0
:104B00007807780789079B089D08AE08AE089E07BE
:104B1000AE08CE0ABE09CE0ADF0BBE0ABE09BE0928
:104B2000BF0AAE08AE08AE08AE07AE089D079D08E6
:104B30009B08780778076706740AA70DA70DA60DCE
:104B4000A60DA60DA60DA60DA60DA60DA60DA60DCD
:104B5000A60DA60DA70DA60DA60DA60DA60DA60DBC
:104B6000A60DA60DA60DA60DA60DA60DA60DA60DAD
:104B7000A60DA60DA70DA70DA70DA70DA60DA70D98
:104B8000A70DA70DA70DA70DA70DA70DA70DA70D85
:104B9000A70DA70DA70DA70DA70DA70DA70DA70D75
:104BA000A70DB80DA60C30036308650766077808E3
:104BB0007807780766067607660766077807780736
:104BC000780767066707780789079C079D079E0790
:104BD0009E07AE08BF09BE09BE099E079E078E0745
:104BE0009E079E07AE08AE089E079E079D078C078E
:104BF0008707780777065305960CA70DA70DA70D15
:104C0000A60DA60DA60DA60DA60DA60DA60DA60D0C
:104C1000A60DA60DA70DA60DA60DA60DA60DA60DFB
:104C2000A60DA60DA60DA60DA60DA60DA60DA70DEB
:104C3000A60DA70DA70DA70DA60DA70DA60DA70DD7
:104C4000A70DA70DA70DA70DA70DA70DA70DA70DC4
:104C5000A70DA70DA70DA70DA70DA70DA70DA70DB4
:104C6000A70DA70DB80D850A5206750766077607CA
:104C70007607770776077607770767076706770768
:104C80007807670666077707660778078A078B073E
:104C90009B078C078D069E079E079E078B0767065E
:104CA0008B079D079E089E078D079C079A0778072C
:104CB0006506770666066308B80DA70DA70DA70D54
:104CC000A60DA60DA60DA60DA60DA60DA60DA60D4C
:104CD000A60DA60DA70DA60DA60DA60DA60DA60D3B
:104CE000A60DA60DA60DA60DA60DA60DA60DA60D2C
:104CF000A60DA70DA70DA70DA70DA70DA70DA70D15
:104D0000A70DA70DA70DA70DA70DA70DA70DA70D03
:104D1000A70DA70DA70DA70DA70DA70DA70DA70DF3
:104D2000A70DA70DA70DB90E6208650765076606F2
:104D300076077807770665066707770777067707A8
:104D400077077707670677076707660777077706A6
:104D5000780778077808770678078807770888073C
:104D600088078907890777068807890777077607FD
:104D7000660767055305A70CA70DA70DA70DA70D7F
:104D8000A70DA70DA60DA70DA70DA60DA60DA60D87
:104D9000A60DA60DA70DA60DA60DA60DA60DA60D7A
:104DA000A60DA60DA60DA60DA60DA60DA60DA60D6B
:104DB000A70DA60DA60DA70DA60DA70DA70DA70D56
:104DC000A70DA70DA70DA70DA70DA70DA70DA70D43
:104DD000A70DA70DA70DA70DA70DA70DA70DA70D33
:104DE000A70DA70DA70DB80D950B53066307530626
:104DF00065068807890777076607670867076607F4
:104E000077077707770766077607670767077707E4
:104E100076077707760776067607660766077606CB
:104E200077077707660676067607760774066406C0
:104E300066066405860BA80DA70DA70DA70DA70D87
:104E4000A70DA70DA70DA70DA60DA60DA60DA60DC6
:104E5000A60DA60DA70DA60DA60DA60DA60DA60DB9
:104E6000A60DA60DA60DA60DA60DA60DA60DA60DAA
:104E7000A60DA60DA60DA60DA70DA70DA70DA70D96
:104E8000A70DA70DA70DA70DA70DA70DA70DA70D82
:104E9000A70DA70DA70DA70DA70DA70DA70DA70D72
:104EA000A70DA70DA70DB80D960C51056407530665
:104EB0005306650788088908770765076607660748
:104EC0006506760777076607760877077708770716
:104ED0007707660766077606660777077607760719
:104EE0006607760865077507650664066407750733
:104EF00065067409B80DA70DA70DA70DA70DA70D81
:104F0000A70DA70DA70DA70DA60DA60DA60DA60D05
:104F1000A60DA60DA70DA60DA60DA60DA60DA60DF8
:104F2000A60DA60DA60DA60DA60DA60DA60DA60DE9
:104F3000A60DA60DA60DA60DA60DA60DA70DA70DD7
:104F4000A70DA70DA70DA70DA70DA70DA70DA70DC1
:104F5000A70DA70DA70DA70DA70DA70DA70DA70DB1
:104F6000A70DA70DA70DA80DB80D5106630764077F
:104F7000530653066407880889088809660665078A
:104F80006607760776076507760776077707770659
:104F9000770687077607760675067707660776072A
:104FA0006506640765076506650665067508740786
:104FB0006308B80DA70DA70DA70DA70DA70DA70D89
:104FC000A70DA70DA70DA70DA70DA70DA70DA60D42
:104FD000A60DA60DA70DA60DA60DA60DA60DA60D38
:104FE000A60DA60DA60DA60DA60DA60DA60DA70D28
:104FF000A70DA70DA70DA70DA70DA60DA70DA70D12
:10500000A70DA70DA70DA70DA70DA70DA70DA70D00
:10501000A70DA70DA70DA70DA70DA70DA70DA70DF0
:10502000A70DA70DA70DA80DB80D6208720973088A
:10503000630751063104310465078908890866074A
:105040006506750776087607760766077707780797
:105050007706780788077706760677069907760633
:10506000760775077507640666077508750775077F
:10507000960CA70DA70DA70DA70DA70DA70DA70DA2
:10508000A70DA70DA70DA70DA70DA70DA70DA70D80
:10509000A70DA60DA70DA60DA60DA60DA60DA60D76
:1050A000A60DA70DA60DA60DA60DA60DA60DA60D67
:1050B000A70DA70DA70DA60DA70DA70DA70DA70D51
:1050C000A70DA70DA70DA70DA70DA70DA70DA70D40
:1050D000A70DA70DA70DA70DA70DA70DA70DA70D30
:1050E000A70DA70DA70DB90D850A32054305530776
:1050F0008709BB0CDD0DCC0CAA0A99098A079C070D
:105100007906540453056406640665067607660648
:105110007607780776067707770778078A0777078D
:1051200065077607750865077507850876076408BB
:10513000B80DA70DA70DA70DA70DA70DA70DA70DBE
:10514000A70DA70DA70DA70DA70DA70DA70DA70DBF
:10515000A70DA60DA70DA60DA60DA60DA60DA60DB5
:10516000A70DA70DA60DA60DA60DA70DA70DA60DA3
:10517000A60DA60DA60DA70DA70DA70DA70DA70D92
:10518000A70DA70DA70DA70DA70DA70DA70DA70D7F
:10519000A70DA70DA70DA70DA70DA70DA70DA70D6F
:1051A000A70DA70DA80DB90D4105430554065306DB
:1051B00043054205320465078809AA0BDC0DDD0DA5
:1051C000EE0EEE0DBB0BAA09880877086606650689
:1051D0006506660665065405650666076607660782
:1051E0007507640765077508860887088707860BB3
:1051F000B80DA70DA70DA70DA70DA70DA70DA70DFE
:10520000A70DA70DA70DA70DA70DA70DA70DA60DFF
:10521000A70DA60DA70DA60DA60DA60DA60DA60DF4
:10522000A70DA70DA60DA60DA60DA70DA60DA70DE2
:10523000A70DA70DA70DA70DA70DA70DA70DA70DCE
:10524000A70DA70DA70DA70DA70DA70DA70DA70DBE
:10525000A70DA70DA70DA70DA70DA70DA70DA70DAE
:10526000A70DA70DB80D850A42055406540653062E
:1052700053055305430553064205320542044205D2
:105280005206750787089709970AA70AA90BA90B61
:10529000A90BB90BCB0CCC0B750765076407750818
:1052A0006507650775077607870898097706970CDD
:1052B000A70DA70DA70DA70DA70DA70DA70DA70D4E
:1052C000A70DA70DA70DA70DA70DA70DA70DA70D3E
:1052D000A70DA70DA70DA60DA60DA60DA60DA60D33
:1052E000A60DA60DA60DA70DA70DA70DA70DA70D21
:1052F000A70DA70DA70DA70DA70DA70DA70DA70D0E
:10530000A70DA70DA70DA70DA70DA70DA70DA70DFD
:10531000A70DA70DA70DA70DA70DA70DA70DA70DED
:10532000A70DA70DC90E41054305430654065406B3
:1053300054065306530543054305540653054305D8
:105340004205320442053205320442054205420458
:1053500042043104310442055306630763076307BF
:105360007408640775087608980886087808B90DE7
:10537000B80DB80DA70DA70DA70DA70DA70DA70D6B
:10538000A70DA70DA70DA70DA70DA70DA70DA70D7D
:10539000A70DA60DA70DA60DA60DA60DA60DA60D73
:1053A000A60DA60DA60DA60DA60DA70DA70DA70D62
:1053B000A70DA70DA70DA70DA70DA70DA70DA70D4D
:1053C000A70DA70DA70DA70DA70DA70DA70DA70D3D
:1053D000A70DA70DA70DA70DA70DA70DA70DA70D2D
:1053E000A70DB90E850A3204430554065406440538
:1053F000440543054305430543053204430543057E
:105400004205430543054305430553065406540628
:10541000430553054305540643055406420442051B
:105420005306640665077607980888088807720798
:1054300084088708DC0DCB0ECA0DB90DA70DA60D8B
:10544000A60DA70DA70DA70DA70DA70DA70DA70DBD
:10545000A70DA70DA70DA60DA60DA60DA60DA70DB0
:10546000A60DA60DA60DA70DA60DA60DA60DA70DA2
:10547000A70DA70DA70DA70DA70DA70DA70DA70D8C
:10548000A70DA70DA70DA70DA70DA70DA70DA70D7C
:10549000A70DA70DA70DA70DA70DA70DB80DB90D49
:1054A000C90EB80D41055405530643054305430590
:1054B0004305320432043204320432054204320419
:1054C00032043204420432043204430542044204EA
:1054D00032044204320443054204420432043204DA
:1054E0003204530575077707990888079A078408D7
:1054F00098087806EF0EEF0EFF0EEF0DEF0EEE0E92
:10550000DC0ECA0DB80DA70DA60DA60DA70DA70D93
:10551000A70DA70DA70DA60DA60DA60DA60DA60DF0
:10552000A60DA60DA60DA60DA60DA60DA60DA60DE3
:10553000A70DA70DA70DA70DA70DA70DA70DA70DCB
:10554000A70DA70DA70DA70DA70DA70DA70DA70DBB
:10555000A70DA70DB80DB80DB90DA70C85096306E9
:1055600042054204430553055306430542043204F1
:105570004204320432043204320443054204320449
:105580003204320442054204420432044305420517
:10559000420432044204320432044204320432042B
:1055A0003204310454067607990888079A07870859
:1055B000AA09AB09EF0DDE0CEE0DFF0EEF0DEE0D9F
:1055C000EF0EFF0EFF0EEE0EDD0ECB0ECA0EA90C77
:1055D0004305A80CA70DA60DA60DA60DA60DA60D9C
:1055E000A60DA60DA60DA60DA60DA60DA60DA60D23
:1055F000A70DA70DA70DA60DA70DA70DA70DA70D0C
:10560000A70DA70DA70DA70DA70DA70DA80DB90DE7
:10561000B80D960B7509630742053103210221027B
:105620002103310321033204430543055406430596
:105630004305420532043204320432053204320496
:105640003204320432044204320442044205420469
:10565000420442044204320432043204320432046A
:105660004204320432047707BC0AAC089908770771
:10567000AB0ADE0DFF0EEF0DEE0EEF0DEE0DEF0D92
:10568000EE0DEF0DEE0EEF0EFF0EFF0FCC0C320302
:105690002103B90DA70DA60DA70DA60DA60DA60DEC
:1056A000A60DA60DA60DA70DA70DA60DA70DA60D5F
:1056B000A60DA70DA70DA70DA70DA70DA70DA70D4B
:1056C000A70DA70DA70DA70DB80DB80D960A520688
:1056D000520552064304540643053203430553055D
:1056E0006407750764074305320432044305430524
:1056F00053055306320431043204320432043104B7
:1057000032043204320432043204320432044205D8
:105710004205320442044205320432044205320496
:1057200032044204310432046507750764076407D4
:10573000650678089909BB0BDD0DEF0FEF0EEF0D35
:10574000DE0CCD0BDE0CDE0CFF0EDD0C4204410442
:1057500031026408A70DA60DA60DA60DA60DA60D77
:10576000A60DA70DA70DA70DA70DA70DA70DA60D9B
:10577000A60DA70DA70DA70DA70DA70DA70DA70D8A
:10578000A70DA70DB80DA80C7408420543054305E5
:105790005305430553055406430543055305430587
:1057A0005305530654065406640654064305420442
:1057B000320432043103310331033204320432043F
:1057C00032043204320432043204420442044204F9
:1057D00032044204420542043204320431043204E9
:1057E0004205320442055406640654065306430536
:1057F0004304430533043204320333038808EE0DB7
:10580000CD0ADE0CEF0EEF0EFF0F770731043103E8
:105810004206A80DA70DA60DA60DA60DA70DA60D57
:10582000A70DA60DA70DA70DA60DA60DA60DA70DDC
:10583000A70DA70DA70DA70DA60DA70DA80DB90DB6
:10584000B80D850A53064104430553055305530516
:105850005305530553054305430553065406640693
:105860005406540654066406540654065306640649
:105870006507750864074305430542043204310493
:10588000310332043103320432043204420542044B
:105890004204430532043103320432044204530605
:1058A000430554065406530653056406640764070B
:1058B000530632043103210331043204210344042A
:1058C000EE0EFF0EFF0EFF0EFF0E5405310375079F
:1058D000CA0EA70DA70DA60DA60DA60DA70DA70D07
:1058E000A70DA60DA70DA70DA70DA70DA60DA70D1A
:1058F000A70DA70DA70DB80DB80D970B750942059B
:10590000310342044205530553065305530553051D
:1059100053065306530653055305430543055305E4
:105920005406650764075306530664075406540675
:10593000640775086407750864075306540664060F
:1059400042054205430553064205530643055306E7
:1059500053066307640763076407740864076407F2
:105960006507640764065406540654065407640722
:105970005305540643053204210331033103210248
:1059800066069A0999088908990921033104410595
:105990004206A80DA70DA70DA70DA60DA70DA70DD3
:1059A000A70DA70DA70DA70DA70DA70DA60DA70D58
:1059B000A80DA70C75095306310333046606550577
:1059C00044053203210331034204530553065306B1
:1059D000530664065406540654064305440543051D
:1059E000430554066407640775087608750864075C
:1059F0006407640864076408640763074205420497
:105A00005306430532044305530653065306530613
:105A10004305530653065306540764086407640796
:105A20006407640753066407530653064305540688
:105A3000540643054305430543053103210331045F
:105A400021032103210321032103420552053004D0
:105A50006408B80DA70DA70DA70DA70DA70DA60DDE
:105A6000A70DA70DA70DA70DA70DA60DA70DA80C97
:105A700076089909BC0BDD0DEE0EFF0FFF0FFF0F2F
:105A8000FF0FFF0FDD0CAA0A77074304210342042E
:105A9000530553066406540654065406530643053C
:105AA00043055305540664076407750865087508BF
:105AB0006508750864076407640874087508640756
:105AC00053075306430521033204320442055305AC
:105AD0005305420542055205530653065406640712
